:020000042000DA
:100000006F00001C3A0500203A050020A4050020DE
:100010003A0500203A0500203A0500203608002065
:100020003A0500203A0500203A0500203A05002054
:100030003A0500203A0500203A0500203A05002044
:100040003A0500203A0500203A0500203A05002034
:100050003A05002000000000000000000000000041
:100060000000000000000000000000000000000090
:100070000000000000000000000000000000000080
:100080000000000000000000000000000000000070
:100090000000000000000000000000000000000060
:1000A0000000000000000000000000000000000050
:1000B0000000000000000000000000000000000040
:1000C0003A050020000000000000000000000000D1
:1000D0000000000000000000000000000000000020
:1000E0000000000000000000000000000000000010
:1000F0003A0500203A0500203A0500203A05002084
:100100003A0500203A0500203A0500203A05002073
:100110003A0500203A0500203A0500203A05002063
:100120003A0500203A0500203A0500203A05002053
:1001300000000000000000000000000000000000BF
:1001400000000000000000000000000000000000AF
:10015000000000000000000000000000000000009F
:10016000000000000000000000000000000000008F
:10017000000000000000000000000000000000007F
:10018000000000000000000000000000000000006F
:10019000000000000000000000000000000000005F
:1001A000000000000000000000000000000000004F
:1001B000000000000000000000000000000000003F
:1001C00073700430970100709381416B17E20070E7
:1001D0001302C2BA170104701301C1E29302002096
:1001E00073A0027D970200009382C2E17390723087
:1001F000970200009382022D7390C27E73E0C07E4E
:100200009702000093820210739052309302F00321
:1002100073B0523073E05130996273B0023089622A
:1002200073A0023073F00232170500001305851128
:1002300097050000938505116300B50217B60B0002
:10024000130646E463FAC5008322050023A0550087
:1002500011059105E3EAC5FE17B50B00130585E20C
:1002600097050070938505DA6300B50217E6007004
:100270001306C6B063FAC5008322050023A055000B
:1002800011059105E3EAC5FE17E50070130505AFFA
:1002900097E500709385050B6377B5002320050073
:1002A0001105E36DB5FEEF00B02E174500001305F4
:1002B0006591EF30A061EF30D00AEF00F032970285
:1002C000000093822218739052309302F00373B0AF
:1002D000523073E05130014581459D20EF00D0360A
:1002E00001A0130000001300000013000000130021
:1002F00000001300000013000000130000000100C4
:0803000073005010F5BF00006E
:10034000411106C6EF00701CEFA03B1C19C9C14744
:100350006300F504375500201305856CEFA04B3979
:1003600001A0375500201305856DEFA06B38B755F8
:100370000020370500209385856E014785461306CA
:10038000002013054565EF10C007EF10A00CC9BF92
:10039000375500201305856BEFA08B35D1B7411180
:1003A00006C697E700709387E7F197E6007093869B
:1003B00066F97D5798C3A107E39ED7FE814517A52F
:1003C0000B0013056509EF50A0009305106017A5F9
:1003D0000B0013056508EF40B07FB24093059020F5
:1003E00017A50B001305450741016F40707EB7E765
:1003F000009003A787D709E723ACA7D601458280E1
:100400002D458280011106CEA307B10019C91C49F0
:10041000DC4781CF1306F10085458297F2400561E4
:100420008280F2400945056182801D45C5BF0000FC
:1004300000000000000000000000000000000000BC
:10044000731191345D7106C012C216C41AC61EC85B
:100450002ACA2ECC32CE36D03AD23ED442DC46DE48
:10046000F2C0F6C2FAC4FEC673D0E57E7350F67EC3
:1004700073D0B67E732520348A85EF009011D25256
:100480007390427CC25273901234B25273902234F1
:1004900082401242A2423243C2435245E245724672
:1004A00082561257A2576258F258064E964E264F61
:1004B000B64F616173119134730020300000000069
:1004C000731191345D7106C012C216C41AC61EC8DB
:1004D0002ACA2ECC32CE36D03AD23ED442DC46DEC8
:1004E000F2C0F6C2FAC4FEC673D0E57E7350F67E43
:1004F00073D0B67EF390D07E73700430D252739076
:10050000427CC25273901234B252739022348240B1
:100510001242A2423243C2435245E24572468256DB
:100520001257A2576258F258064E964E264FB64FB3
:100530006161731191347300203001A01300000039
:1005400097020470938202AC7390023417E100703A
:10055000032141880241824273901234D652739033
:1005600002309240A2423243C2435244E2447245B6
:1005700082551256A2563257C2575258E2587259F3
:100580008649164AA64A364BC64B564CE64C764D23
:10059000865D165EA65E365FC65F13018107730037
:1005A00020300100130181F806C216C41AC61EC805
:1005B00022CA26CC2ACE2ED032D236D43AD63ED833
:1005C00042DA46DC4ADECEC0D2C2D6C4DAC6DEC8C3
:1005D000E2CAE6CCEACEEED0F2D2F6D4FAD6FED813
:1005E000F322003096DA97D2007083A2A27E23A075
:1005F0002200F322103416C0EF00A01D97D2007025
:1006000083A2427D03A10200824273901234D6522B
:10061000739002309240A2423243C2435244E244B9
:10062000724582551256A2563257C2575258E25856
:1006300072598649164AA64A364BC64B564CE64C6A
:10064000764D865D165EA65E365FC65F1301810736
:1006500073002030011106CEEF905B63EF00207F26
:100660004800EF00E07F924599C5375500201305FB
:100670008565EFA0EB073755002013054566EFA011
:100680002B07B7550020370500209385C567014724
:100690009146130600201305A56AEF009056014508
:1006A000EF00305BF24005618280411122C426C216
:1006B0004AC006C6014437590020A9440504A28552
:1006C00013058968EFA0CB021305803EEF00D058D8
:1006D000E31694FE375500201305056AEFA04B0181
:1006E0002244B24092440249014541016F007056D4
:1006F000B7070090411103A7C707B706009002C6CD
:10070000FD5783C686076309F700B7070218A3855C
:10071000D7000F00F00F01A0B7070218A385D7007C
:100720000F00F00FB24799E773F00081730050108B
:10073000B247FDDB410182801167B7070020130734
:1007400007889387076F232EE5FE2326F5F82324D9
:10075000B5F82322C5FA130585F882803706009084
:1007600083478607B7060218A385F6000F00F00F2F
:10077000370700908327C7078507232EF70605470D
:100780006383E700828003C7B60083478607E38B55
:10079000E7FEA385F6000F00F00F01A037070090D9
:1007A0008327C70781EFB707009003C78707B707FD
:1007B0000218A385E7000F00F00F01A0FD17232EFC
:1007C000F70699E7B7070218A38507000F00F00F97
:1007D00082804111B707009003C7870706C6B70795
:1007E0000218A385E7000F00F00FF32740F19DE307
:1007F000371703188327C7FFF99B232EF7FEEF1047
:10080000100DB7070218A38507000F00F00FB240C4
:1008100041018280371703188A07BA97014798C3A6
:10082000EF10F00AB7070218A38507000F00F00FBA
:10083000B240410182800111B707009003C78707CA
:1008400006CEB7070218A385E7000F00F00FD921E5
:10085000B787EB519387F751B337F5023707031882
:1008600095831107B7060318104332C2904232C471
:1008700018433AC6124632476304E600944236C42F
:10088000B246A2453386B7003337F600369763FA8F
:10089000E606F32740F1A1C7B75603188E07B697AF
:1008A000FD5694C39386470098C290C3EF10E0436F
:1008B00011CDF32740F19DEF371703188327C7FFAA
:1008C00093E71700232EF7FE0F00F00FB70702186B
:1008D000A38507000F00F00FF24005618280B70783
:1008E0000318A107FD5694C3B7060318B10698C2B2
:1008F00090C36DBF371703188A07BA97054798C387
:10090000E1B76314D700E3E6C5F88146370603185C
:1009100014C21307460014C314C2732740F119EB25
:10092000930686007D5690C237060318310618C21A
:100930009CC2ADBF375603180E0732977D5610C3C1
:100940001306470014C21CC395B7011106CED92661
:10095000B787EB519387F751B337F5023707031881
:1009600095831107B7060318104332C2904232C470
:1009700018433AC6124632476304E600944236C42E
:10098000B24622473306F7003337E6003697F326A0
:1009900040F163950618B7060318A106FD558CC2F1
:1009A000B7050318B10598C190C2371702188346DE
:1009B000E70193F6E60F230FD7008346E70193F68E
:1009C000F60F230FD700B706021803C706000583EA
:1009D0003D8BD44205C7D582BD8A3686636FD71456
:1009E000B716021803C7F6013317C7001377F70FBE
:1009F0003357C7401377F70FA38FE600B7160218D7
:100A000003C7D60113671700A38EE6003706031845
:100A1000814614C21307460014C314C2732740F161
:100A20007DE3930686007D5690C237060318310693
:100A300018C29CC2371702188347D70193F7E70FF4
:100A4000A30EF70037070218834707008583BD8B85
:100A5000584385C755833D8BBA8663EEE70C37173D
:100A600002188347F701B397D70093F7F70FB3D76F
:100A7000D74093F7F70FA30FF700B717021803C774
:100A8000E7011377E70F238FE70003C7E701137729
:100A9000F70F238FE70003C7D70113671700A38E53
:100AA000E70003C7E7001377E70F2387E70003C7D3
:100AB000E700136717002387E7003707021883470B
:100AC00007008583BD8B584385C755833D8BBA8608
:100AD00063E1E706371702188347F700B397D7009B
:100AE00093F7F70FB3D7D74093F7F70FA307F700A4
:100AF000371702188347D70093E71700A306F700BC
:100B0000F24005618280375603180E0732977D56F2
:100B100010C31306470014C21CC329BFB7550318DE
:100B20008E06AE96FD558CC29385460098C190C244
:100B3000ADBDBE8645B7BE861DB73A8655B5011117
:100B40003707021806CE22CC26CA8347070058432F
:100B500085835583BD8B1376F700BE866373F600DD
:100B6000B2868547B397D700FD172147158F13F637
:100B7000F70F9D461377F70FB704009063F3C60095
:100B8000B6878546B396E60093F7F70FFD16B39741
:100B9000E700D58F238CF406370702188347070038
:100BA000584385835583BD8B9375F700BE8637E622
:100BB000009063F3F500AE868547B397D700FD1725
:100BC00093F6F70F1D476373D700BA87230EF6D647
:100BD000737004309D3BB7E70090054737040090E1
:100BE0002386E7D8232E0406A13AEF10404E0327B0
:100BF000C40702C6FD57630BF70003C78407B70796
:100C00000218A385E7000F00F00F01A003C78407B7
:100C1000B7070218A385E7000F00F00FB24799E766
:100C200073F0008173005010B247FDDBF240624464
:100C3000D244014505618280F327203463CD07004B
:100C4000B707009003C78707B7070218A385E70017
:100C50000F00F00F01A0D207D18345476371F7065B
:100C6000370602180347060005833D8B544221CB0B
:100C7000938707408A073E96D58283473600BD8A10
:100C800093F7F70F13F6F60FB7E500906374D700EC
:100C90001376F70F2147118FB3D7E74093F7F70F7C
:100CA00003C7C5D7637DF700B707009003C7870761
:100CB000B7070218A385E7000F00F00F01A082809C
:100CC00001456F904B7A375500201305456F6F2013
:100CD000105A1387C10818C19387C1C89CC19307D4
:100CE00000101CC28280138781C1B707009018C111
:100CF000938707099CC1930700101CC28280375557
:100D00000020130545716F209056375500201305BC
:100D1000457221AB0111A1676C001305000206CEDC
:100D20003EC68D22F240324505618280411106C6E1
:100D300022C426C24AC0F32520347329907CF324B0
:100D4000103473243034375500201305C573EF2059
:100D5000105237550020CA8513054575EF203051D4
:100D600037550020A6851305C576EF20505037551E
:100D70000020A28513054578EF20704FEFA0AB2F20
:100D8000AA85375500201305C579EF20504E01A0E4
:100D900082808567FD173377F500AD4663E1E60293
:100DA000B7E700909387C7E20A07BA979C438DC7BD
:100DB000411106C68297B240014541018280630F0E
:100DC000F7004111B717002006C69387C7D2829754
:100DD000B24001454101828001458280B7E7009021
:100DE00083A7C7E5F1F7CDBF73E0A07CC16773A00F
:100DF000A77C0F00F00F0F100000B7E7009093875B
:100E0000C7E237170020938647031307C7D298C35A
:100E10009107E39ED7FEB7070218A3850700D843C2
:100E200083C6070093F6160E2380D700518383C62E
:100E30000700798B558F2380E700996773B00730DF
:100E4000896773A00730828082808280828019C582
:100E5000B7E7009023A0A7D8014582807D55828006
:100E6000B7E7009083A707D881CF9C4381CB41117E
:100E700006C68297B24001454101828001458280C9
:100E80007D558280B7E7009003C747D8AA8719CF5E
:100E90000D4563FEE70037E70090032787D8E1465A
:100EA0007F97D7C401451C479CC18280054582803D
:100EB0001DC1411122C4370400901304C40006C6AA
:100EC000084011C5FD55EF90BB4923200400B240F6
:100ED0002244410182808280011126CAB7E4009039
:100EE000938404E64EC652C456C206CE22CC03C436
:100EF000040237070090DC400D8083C614020327EC
:100F000047013307F7023304D402B75762103304A2
:100F1000E402938737DD3334F4021980984CB70923
:100F2000009093890900B3078700D04883A5090082
:100F3000918F330AB400884883AA89006341F60878
:100F40003A95D6956350F006B3D7D7404AC833993F
:100F5000D70033062441EF20F054B3052A414A86D6
:100F6000D6958848EF20105423AC2401424983A72A
:100F70004900B337FA00B307F040D84C337AFA008F
:100F8000B3078700DCCC23A04901DC50A9C3A285AC
:100F9000624490548840F240D244B249224A924A74
:100FA000056182872286EF20F04F9C4CA297D8489B
:100FB00033A7E7003307E040F98F9CCC4DBF918DFC
:100FC000A295D695EF20104E23AC04004DB7F24009
:100FD0006244D244B249224A924A0561828031C9B0
:100FE000411122C4370400901304C40006C61C40FB
:100FF00091C70145B240224441018280B7170020C9
:101000003706009037550020938787ED13060601B9
:101010001305057B144401478545EF903B2208C02A
:1010200069F9375500201305457CEF906B6C094535
:10103000D1B70945828019C991C983C7E501054720
:101040006383E7020947638AE70091C382803755CB
:1010500000201305057E6F90AB69376500201305EE
:1010600045816F90EB68411122C43704009013044E
:10107000C40006C6084001C58347C40089E7B240E2
:10108000224441018280FD55EF909B2801E5230613
:101090000400F5B7224437550020B2401305C57F40
:1010A00041016F90EB64411106C626C2630705102B
:1010B00022C42E8463890510B70700904AC01389A3
:1010C000C70083270900638407141C4183C73701C5
:1010D00003C7D501B387E70291878449B3E4F402DB
:1010E000DDE8B7E7009037E500909845D441938755
:1010F00007E613060002130545E6D4D398D7EF2080
:10110000703A0347D40185460346C401832789000A
:101110000C40631BD7060967130707F46398E50AB9
:1011200041476315E60C9166938606E837576210CF
:10113000B385D702930737DDB3B5F50299811C4813
:1011400063C6B706B707009037470B0093870700C1
:101150001307076423A00700D8C30344E4018547AD
:10116000630DF4068947630CF40219E43755002037
:101170001305057EEF90CB579D4422440249B240AF
:101180002685924441018280376500201305C5827F
:10119000BA85EF90EB558D4422440249CDB73765AF
:1011A000002013054581EF90AB54F9B73765002057
:1011B00013058588EF90CB5371B78944B2402685DB
:1011C0009244410182808944224455BF3765002002
:1011D0001305C584EF90CB517DBF0325090001C5E0
:1011E0008347C90081CF2244024951BF376500209F
:1011F000B2851305C586EF90AB4F71BFFD55EF90DB
:101200001B0B11E923068900224402498DBFFD54BE
:1012100022440249ADB7376500201305058CEF90D5
:101220002B4DB9442244024999BF411106C626C23A
:1012300015CDAA84314522C4EF20E0692A8431C546
:10124000B7E7009037670020938707E61307C78D3D
:1012500004C11CC558C188C3EFF06F99AA8409ED79
:101260002244B24026859244410182808D44B2409E
:1012700026859244410182802285EF204066B2405B
:1012800022442685924441018280A9442244D1BF50
:1012900039713A8322DC4AD806DE26DA094E3E84CA
:1012A0002E87B287C2852A891A864688638FC6012F
:1012B00081448646A2854A85EF90EB342695F2500C
:1012C0006254D254425921618280A9466300D302FC
:1012D000E5D186463EC43AC246C61AC0EF90AB324C
:1012E000AA843248A24712470246E1B7B366B40067
:1012F0002E88E1C6864691CE82C063DC0500B336F7
:101300008000B305B0403388D54085463304804023
:10131000B6C037D6CCCC32851305C5CC1306D6CC97
:10132000A30601029304D102154E2943A54EB3082A
:101330000401B3B68800B698B3B6C8028982FF9894
:10134000C6C7A68FB3081441B3351401B305B8401E
:10135000B386A802FF96C5C4B3B5C802AE96B388DB
:10136000C8029395F60193D81800B3E81501A28539
:10137000FF9568C6FD14938505032380B400C285DC
:10138000228F13D816004684DDF1E3E2EEFB864699
:1013900081CE01C793F627009DEA9306D002A38F62
:1013A000D4FE82C09384EFFFBE863A86A6854A8526
:1013B000EF906B0E86473E9519B713080003BE8663
:1013C0003A862C08231C0101EF90EB0CCDBD630F76
:1013D0000900832609001306D0022380C600832655
:1013E000090085062320D9007D177DBF9305D00213
:1013F00001453EC23AC0EFF0EF80024792477D17A9
:1014000065B70111BA87420636874182BE867C00E5
:1014100022CC06CE2E84192B85476317F500F240A7
:101420006244324505618280B707009083A70708B0
:101430006347F0000145F2406244056182802A86DC
:1014400037A50B2013058525A285EF906B2A014552
:10145000DDB789AB6F00C075B7E7009083C7C7D809
:1014600091E38280411106C62920B24041016F00FC
:10147000703AB7D7CCCC9387D7CCB337F5028D83EE
:1014800029477F95E7C63335A0003E958280B7E7B0
:10149000009083C7C7D899C36F10500D0145828053
:1014A000B7E7009083C7C7D891E382806F10F0251B
:1014B000011122CC4AC806CE26CA4EC62A84EFF0B5
:1014C000EFA937E70090832707DC85072320F7DCA7
:1014D00037E90090832709DDD1CFB7E9009083A7D2
:1014E00049DB5854A5CFB7E40090938404EFB7E6E6
:1014F000009083A746DA850737E6009023A2F6DA44
:101500007CC0832786DB63F4E700232CE6DAD1472F
:1015100026857F15F7C493054400EF10E01DEFF01A
:10152000EFA783A749DB85C7832709DDD8575C541C
:10153000637FF700F32740F1A9EF371703188327DC
:10154000C7FF93E71700232EF7FE0F00F00FF240BE
:101550006244D2444249B24905618280832709DD51
:10156000B7E40090DC57938404EFE362F7F8232894
:1015700089DCB5BF232889DC032707DC85476303A3
:10158000F702B7E40090938404EF5854B7E9009051
:10159000B9BF371703188A07BA97054798C30F00D2
:1015A000F00F75B7B7E90090938409EF52C493899F
:1015B00009EF138A040A4E85D109EF104012E31C8B
:1015C0003AFF37EA00901305CAEDEF104011B7E972
:1015D0000090138589ECEF10801037E5009013051B
:1015E00045EBEF10C00F37E50090130505EAEF104B
:1015F000000F37E500901305C5E8EF10400E130A01
:10160000CAEDB7E7009023A647DD938989ECB7E7D9
:10161000009023A437DD5854B7E90090224AC1BD99
:10162000011126CAB7E70090B7E400904EC683A91F
:10163000C7DB83A704DD22CC2A84138547004AC870
:1016400006CE2E89EF10800FFD576300F4044E94F0
:1016500083A704DDC0C363633405B7E7009003A527
:10166000C7DC83A504DD9105EF10600AB7E70090A1
:1016700003A707DA6374E40023A087DAF240624428
:10168000D2444249B24905618280631C0904138730
:10169000F9FF83A704DDD8C363810902B7E700908F
:1016A00003A587DC624483A504DDF240D2444249AD
:1016B000B249910505616F108005B7E7009003A559
:1016C000C7DC83A504DD9105EF106004F24062449D
:1016D000B7E70090D2444249B24983A707DA0561CF
:1016E000828083A504DD624437E50090F240D24455
:1016F0004249B24991051305C5E805616F00D07FE5
:1017000001114EC69319260022CC52C44E862A8A55
:101710002E84032508039305500A26CA4AC856C2D8
:101720005AC0C2843E8B06CEB68A3A89EF20004D5D
:10173000F1199C58BE9993F989FF51CCA285930762
:1017400004011388440383C805002300180185059C
:10175000638508000508E398F5FEA38104049D470E
:1017600063F327013E891385440023A6240323A69F
:10177000240523A80404EF00D07713858401EF002B
:101780005077A147B387274184C8C4D023A4040657
:1017900023AA04049CCC23AC040423AE040423A099
:1017A000040623A2040623A60406238804065686FC
:1017B000D2854E85EFE05FF888C063040B002320DC
:1017C0009B00F2406244D2444249B249224A924AC2
:1017D000024B05618280238A040251B701114EC673
:1017E00052C4B7E9009037EA009026CA4AC856C2E8
:1017F0005AC006CE22CC938909EA130A0AEFB7E44D
:10180000009037E90090854A094B83A744DCADC3BB
:10181000EFE0DFF483A7C900C04713054400EF00E1
:10182000F071832709DCFD172320F9DC83A744DC52
:10183000FD1723A2F4DCEFE07FF68347140785C38E
:10184000638D5705E38367FDB707009003C78707DC
:10185000B7070218A385E7000F00F00F01A0085892
:10186000EF10A06A2285EF10406A83A744DCCDF315
:1018700083270A000547637FF700F32740F195E3CC
:10188000371703188327C7FF93E71700232EF7FEA8
:101890000F00F00FEFF0CFC28DBF2285EF10E06692
:1018A000ADB7B71603188A07B69798C30F00F00FA5
:1018B000D5B7B9C3011122CC06CE42846303080216
:1018C0009308400746C6324363031305B7070090E9
:1018D00003C78707B7070218A385E7000F00F00FBB
:1018E00001A0B707009003C78707B7070218A385B1
:1018F000E7000F00F00F01A0B707009003C78707AC
:10190000B7070218A385E7000F00F00F01A0894870
:10191000A30818072328F802B2483C00D5332285D3
:10192000413EF240624422450561828079714ECE8B
:10193000AA891315260026D252CC56CA5AC85EC6AA
:1019400006D6B2842E8AB68A3A8BBE8BEF1000423E
:1019500021C922D42A84130540074AD0EF10004140
:101960002A8915C900D92A88A3080506DE875A875F
:10197000D6862686D2854E8561334A85153E054535
:1019800022540259B2509254F249624AD24A424B0E
:10199000B24B456182802285EF10205722540259B4
:1019A0007D55CDB7411122C42A844AC006C626C23D
:1019B00037E90090EFE09FDA79C093044400268570
:1019C000EF00D0571C5489C713058401EF0010574E
:1019D00037E70090832747DA85072322F7DA832742
:1019E00009DD638F870637E70090832707DCFD1743
:1019F0002320F7DC8347140795C30547638DE70A67
:101A000009476383E702B707009003C78707B70753
:101A10000218A385E7000F00F00F01A00858EF108F
:101A2000C04E2285EF10604EB7E7009003A7C7DCD9
:101A3000184329EBB7E700907D5723A0E7DAEFE0E2
:101A4000FFD5B7E7009083A747DB89C7832709DD68
:101A500063838704B2402244924402494101828058
:101A600037E50090130505EAA685EF00F04837E753
:101A70000090832747DC85072322F7DCC9B70324BE
:101A800009DD25BF83A7C7DCDC479843B7E7009093
:101A900023A0E7DA6DB7B7E7009083A787D985C39E
:101AA000B707009003C78707B7070218A385E700A9
:101AB0000F00F00F01A02285EF102045B5B7F327E6
:101AC00040F181EF371703188327C7FF93E717000B
:101AD000232EF7FE0F00F00FB5BF371703188A0744
:101AE000BA97054798C30F00F00FADB72DC9011184
:101AF000B7E7009022CC06CE2A8483A707DD0145F4
:101B0000638B870426CA4AC84EC6EFE03FC537E755
:101B100000900329C7DCB7E70090444883A987DC1D
:101B2000EFE0DFC7638F2405638D3405B7E70090CE
:101B30009387C7E86380F404B7E70090938707EAC8
:101B40006383F40613B514003305A0400D89050521
:101B5000D2444249B249F240624405618280B707EB
:101B6000009003C78707B7070218A385E7000F0097
:101B7000F00F01A01C54094589CFD2444249B24913
:101B8000D9BFF2406244D2444249B2490945056195
:101B90008280034504077D153335A0000905D24432
:101BA0004249B2494DBF1145D2444249B24965B795
:101BB000011170002C00480006CE02C202C4EFF0F2
:101BC0004F91B7A50B2037150020A2471248324687
:101BD000938505381305C57D01478146D939B7E797
:101BE000009023AEA7D829CDEF00D03F85476300F2
:101BF000F502FD576316F504B707009003C7870782
:101C0000B7070218A385E7000F00F00F01A0B70780
:101C1000009003C78707B7070218A385E7000F00E6
:101C2000F00FB7E700907D5723A0E7DAB7E7009001
:101C300023AAA7DAB7E7009023AE07DAEFE03FF078
:101C4000F240B757002083A787640561828037E799
:101C50000090832787D98507232CF7D882804111EC
:101C600006C622C4EFE09FAFB7E7009003A4C7DB2E
:101C7000EFE0DFB22285B24022444101828041116F
:101C800006C6EFE07FFBB7070218B706009003C750
:101C9000B70083C686071377F70FA385D7000F0019
:101CA000F00FB7E6009003A5C6DBA385E7000F00A1
:101CB000F00FB24041018280B7E7009003A507DC36
:101CC000828001C5130545038280B7E7009003A514
:101CD00007DD6DF9B707009003C78707B70702183C
:101CE000A385E7000F00F00F01A07971B7E700901E
:101CF00006D656CA83A787D9CDEFB7E700904AD05A
:101D000003A9C7DB050966C223AE27DB6300090C04
:101D10004ECE5EC6B7EC009083A70CDA6369F90C6F
:101D200052CC37EA00908327CADC9C4363820716B3
:101D3000B7E900905AC862C422D426D2938909EF29
:101D4000814AB7EB009037EB0090514C89A0EF002F
:101D5000F01E1C541305840199C3EF00301E5C541F
:101D60004E8503278BDB7F9587C5A6856374F700B7
:101D7000232CFBDAEF00501883A70BDDDC575854F7
:101D80006363F700854A8327CADC9C43E5C3832746
:101D9000CADCDC47C047930444005C402685E378F6
:101DA000F9FA23A0FCDA22549254624A424B224CA4
:101DB000B1A037E70090832707DB8507814AB2503F
:101DC0002328F7DA5685D24A45618280B7E700902A
:101DD00003A7C7DC184331CFB707009003C78707B5
:101DE000B7070218A385E7000F00F00F01A0B7E9BD
:101DF0000090938909EF814AB7EB009083A70BDD30
:101E0000D857D147FF19F7C4854703A7090063F3E3
:101E1000E700BE8AB7E7009083A7C7DA91C3854A77
:101E2000B2500259F249B24B924C5685D24A4561A2
:101E3000828037E7009083A6C7DC032687DC23A6D1
:101E4000C7DC2324D7DCB7E6009003A786DA0507B2
:101E500023A4E6DA03A7C7DC4ECE5EC6184305E32B
:101E6000B7EC0090FD5723A0FCDA7DB522549254C4
:101E7000424B224CFD5723A0FCDA624A41B783A7AC
:101E8000C7DCDC479C43B7EC009023A0FCDA69B5C3
:101E9000B7E90090938909EF814AB7EB0090D9BF69
:101EA000797106D622D4EFE07F8BB7E7009003A7C5
:101EB00087D97D1723ACE7D883A787D96395071007
:101EC000B7E7009083A707DC638F070E4AD037E996
:101ED0000090130949EB5EC626D283270900B7EBB1
:101EE0000090D1C752CC37EA00904ECE56CA5AC89D
:101EF00062C4130A0AEFB7E9009037EB0090B7EB22
:101F00000090D14A054C8327C900C04713058401BE
:101F1000EF00D002930444002685EF0030025C54A9
:101F2000528503A789DB7F9557C5A6856374F700A3
:101F300023ACF9DAEF00407C83270BDDDC575854E3
:101F40006364F70023A68BDB83270900CDFFB7E787
:101F5000009003A7C7DC18433DEFB7E700907D571B
:101F600023A0E7DAF249624AD24A424B224C37E9CF
:101F70000090032409DB11C88544853B7D1419C1F9
:101F800023A69BDA7DF8232809DA83A7CBDA8DCB49
:101F9000F32740F1A1EB371703188327C7FF93E717
:101FA0001700232EF7FE0F00F00F0544925402593C
:101FB000B24BEFE0AFFE2285B250225445618280E1
:101FC00092540259B24BEFE06FFD01442285B250AA
:101FD00022544561828083A7C7DCDC479843B7E77A
:101FE0000090BDBF371703188A07BA97054798C3F3
:101FF0005DBFB7E7009083A787D981EFB70700904F
:1020000003C78707B7070218A385E7000F00F00F83
:1020100001A079B509EDF32740F18DCF37170318EB
:102020008A07BA97054798C30F00F00F82804111C5
:1020300022C437E4009006C6832784D99DC7B7071A
:10204000009003C78707B7070218A385E7000F00B2
:10205000F00F01A0371703188327C7FF93E7170076
:10206000232EF7FE0F00F00F8280832784D9850787
:10207000232CF4D88145EFF0AFDA832784D981EFA0
:10208000B707009003C78707B7070218A385E700C3
:102090000F00F00F01A0293511EDF32740F199EF62
:1020A000371703188327C7FF93E71700232EF7FE80
:1020B0000F00F00FB240224441018280371703180D
:1020C0008A07BA97054798C30F00F00FE5B7B7E73F
:1020D000009083A787D999C7B7E70090054723A643
:1020E000E7DA8280B7E7009023A607DAB7E7009027
:1020F00003A7C7DBB7E70090411123A8E7D837E76C
:10210000009022C406C683A607D9032647D937E420
:102110000090637AD60003A507D9832504DDB45562
:10212000918EAA96B4D503A607D9832604DD83270A
:1021300004DD232AC7D89C5B984263F7E706B7E61D
:102140000090B7E50090938606EF83A785DB5146A4
:1021500036877F97C7C4184301EB85CFFD173687B5
:102160007F97C7C4184375DB51473387E702338530
:10217000E60050415042210750C1BA96630FD60283
:1021800058462328E4DCB240224423ACF5DA41016E
:102190008280B707009003C78707B7070218A38597
:1021A000E7000F00F00F01A0032504DD832504DD07
:1021B00093854503EFE03FB159B7504250C1C9B7CD
:1021C00015C14111B7E7009022C42E8483A507DD15
:1021D000E10506C62D2B22852244B24085454101EA
:1021E0006FF00FC4B707009003C78707B70702183F
:1021F000A385E7000F00F00F01A01DC54111B7E74F
:10220000009026C2AE8483A507DD22C4E105328496
:1022100006C6DD2111C0FD54A2852244B2402685A8
:10222000924441016FF0CFBFB707009003C7870703
:10223000B7070218A385E7000F00F00F01A04111B6
:102240005C4522C406C626C2C04735C89304840133
:102250002685ED21B7E7009083A787D995CB37E591
:102260000090130545EBA6854129B7E7009083A7A9
:1022700007DDDC575854014563F7E700B7E70090E6
:10228000054523A6A7DAB240224492444101828048
:102290009304440026855D2137E700905C54832633
:1022A00087DB63F4F600232CF7DA37E5009051471B
:1022B000130505EF7F95E7C4A6853D297DB7B707D0
:1022C000009003C78707B7070218A385E7000F0030
:1022D000F00F01A037E70090B7E70090032787DAF7
:1022E00083A7C7DB18C15CC182803DC1411126C2F2
:1022F00006C622C4AE84B1C12A84EFE02FC637E7F8
:1023000000909C408326C7DB7D56638BC706B7E5EC
:10231000009003A585DA0328040050406305A80453
:1023200063E3C60423A004000544EFE02FC7228521
:10233000B2402244924441018280B707009003C713
:102340008707B7070218A385E7000F00F00F01A069
:10235000B707009003C78707B7070218A385E700F0
:102360000F00F00F01A03385C640E37DF5FA958F8D
:10237000B2979CC083A685DA8327C7DB14C05CC0F4
:10238000014465B7B7E70090054723A6E7DA8280E6
:10239000411122C426C24AC006C6AE8432892A84AC
:1023A00035CD0323C402832804030328440468446E
:1023B000385493074403DCC023A8640023AE1401FF
:1023C00023A40401C8C898CC80C095476383F6064F
:1023D000B7E7009083A707DD63878704D4C48D47E0
:1023E0006381F6068147630309021058834606009D
:1023F0001307500A639CE60085073307F60003477E
:102400000700E30BD7FE8983C207C1832390F40240
:10241000B24022449244024941018280B7E70090D1
:1024200003A407DDBDBF23A604008147E30009FE26
:102430006DBF2285EFF08FEBC8C48147E30809FC2C
:102440006DB7B7E7009003A787D9050723ACE7D896
:10245000185419C30947D8C483A787D981EFB70790
:10246000009003C78707B7070218A385E7000F008E
:10247000F00F01A0EFF0DFA2B5B70111DC414AC8AF
:1024800052C456C206CE22CC26CA4EC65AC0DC431F
:10249000138A85002E89B28A6380470703ABC70081
:1024A0002A84814919A8C4472685DD358509130486
:1024B000440263089B0283274900DC432322F9007E
:1024C000D6860546A285E310FAFE83274A00C44754
:1024D0002322F90026856D3D850913044402E31C7F
:1024E0009BFCF24062444E85D2444249B249224AA2
:1024F000924A024B05618280DC454DB779715AC81A
:1025000037EB009083278BD9850706D64AD0232C3A
:10251000FBD8B7E7009083A707DC014963EFF50C10
:1025200026D256CAB7E40090B7EA009022D44ECE25
:1025300052CC5EC662C4AA89B28B9384C4F7938AD4
:102540000AEF2144130A4002514C7D14D687FF172D
:1025500084C54E859C437F1549C50546A68591C710
:10256000293F2A994E857F1549C5B11479FCB7E7F3
:10257000009083A5C7DC9C4189CB0946FD3D2A9983
:10258000930740024E857F15F9C4B7E7009083A5F5
:1025900087DC9C4189CB0946CD352A9993074002B7
:1025A0004E857F15F9C4B7E50090938705EA9C43F3
:1025B00099CB1146938505EAC9352A9993074002BC
:1025C0004E857F15F9C4B7E500909387C5E89C4315
:1025D00091C70D469385C5E84D352A9963880B0050
:1025E000B7E7009083A7C7DB23A0FB0022549254D7
:1025F000F249624AD24AB24B224C83278BD981EFEF
:10260000B707009003C78707B7070218A385E7003D
:102610000F00F00F01A0EFF0BF88B2504A85424B87
:10262000025945618280B7E7009083A747DB0545E3
:1026300081CBB7E7009003A587D9133515000605B0
:10264000828031CD4111B7E7009022C406C603A4B1
:1026500007DD630DA400B707009003C78707B7071E
:102660000218A385E7000F00F00F01A03C4889CFB6
:10267000FD173CC8545478446383E6009DC301456C
:10268000B240224441018280B707009003C7870708
:10269000B7070218A385E7000F00F00F01A001455E
:1026A000828026C293044400268549287C44214721
:1026B0001D8FB7E6009018CC5CD403A786DB63744B
:1026C000F70023ACF6DA37E500905147130505EF24
:1026D0007F95E7C4A6850D200545924455B793071D
:1026E00085007D575CC15CC51CC92320050018C549
:1026F00082802328050082805C41984798C5DCC110
:102700004CC38CC71C41850788C91CC1828090417D
:102710007D57930785006300E602BE86DC4398433D
:10272000E37DE6FEDCC18CC794C51C41CCC28507A5
:1027300088C91CC182801449DC42EDB75441184558
:102740001C4998C654C3D4436389A60098437D1797
:102750002328050098C388438280D8C398437D17F7
:102760002328050098C388438280411122C406C6ED
:1027700037E40090EFD09FFE8327C4DD91C7224449
:10278000B24041016FE08F814AC037E900901305E4
:10279000890E26C2A937B7E400901385440D81370E
:1027A000B7E6009037E600901309890E9384440D34
:1027B00037E80090B7E70090938606F9130646FEC7
:1027C0000147C1453D45232228DF23A097DEEF00C6
:1027D000902A232EA4DC224492440249B2404101B3
:1027E0006FD0DFFB011106CE4937B7E7009083A712
:1027F000C7DDA1C370002C00480002C202C4EFE094
:102800008FCEB7A50B2037350020A247124832469D
:102810009385C5381305459D1D478146EFF06F89A7
:10282000B7E7009023ACA7DC09C5F2400545056178
:102830008280B707009003C78707B7070218A385F0
:10284000E7000F00F00F01A0011156C2AA8A13057C
:10285000C00222CC26CA4AC84EC652C406CEAE8496
:102860003289368ABA8919232A841DC523040502B0
:1028700095CCE53D130544002320540104CC232EC0
:10288000440123203403B5356308090083478402DB
:1028900093E747002304F4022285F2406244D244C5
:1028A0004249B249224A924A05618280B7070090A4
:1028B00003C78707B7070218A385E7000F00F00FCB
:1028C00001A021C5011122CC37E4009006CE832857
:1028D000C4DDAA870145638608023EC42EC032C209
:1028E000954763CFB70226CABA84353B89478146EC
:1028F0006302F50401468A850325C4DDEF00102438
:10290000D244F240624405618280B707009003C759
:102910008707B7070218A385E7000F00F00F01A093
:1029200036868A8581464685EF001043F240624430
:102930000561828026868A850325C4DDEF0010208C
:10294000D244C1B701114AC806CE22CC26CA4EC60F
:1029500037E9009005A0DC47C04793044400268572
:1029600083A90700E13B1C5022858297834784029C
:10297000918B85E7832749DE984371FF37E7009005
:10298000832607DE2322D9DEF24062442320F7DECD
:10299000D2444249B249056182801C4CCE9701471E
:1029A00081464E868145228563F9F9005CC000C8E6
:1029B000032549DEA685A13B75BF213745FDB70735
:1029C000009003C78707B7070218A385E7000F0029
:1029D000F00F01A05D7152DC37AA0B20A2C4A6C281
:1029E000CAC04EDE56DA5AD85ED686C662D466D2E1
:1029F0006AD06ECE130A8A39B7E9009037E90090A1
:102A0000B7EB009037E400908A84371B0318A54A7F
:102A100083A749DE03AD0700630C0D14DC4703AD4B
:102A20000700EFF0CFA2EFF08FA3832749DDAA8C38
:102A30006361F516232AA9DC0146637BA517B3055C
:102A40009D410325C4DDEF00B061EFF08FDA09EDA1
:102A5000F32740F1639707148327CBFF93E7170011
:102A6000232EFBFE0F00F00F0146A6850325C4DDD3
:102A7000EF00504251DD8247224563C4070EA24C4D
:102A800083A74C0181C713854C004D39EFF02F9D72
:102A9000832749DD2A8D6364F510232AA9DD824747
:102AA000E3E4FAFC8A07D2979C438287924783C665
:102AB0008C0203A68C0193E616003387C70023849B
:102AC000DC0223A2EC0023A89C01B336F700636A62
:102AD000ED10330DFD406369CD1483A70C026685AC
:102AE000829783C78C02918BC1D3124683A78C0136
:102AF0003E960147814681456685E13335F5B70746
:102B0000009003C78707B7070218A385E7000F00E7
:102B1000F00F01A003C78C021367170092472384AC
:102B2000EC0223ACFC00638E0712EA9723A2FC00A0
:102B300023A89C0193854C006360FD0C03A50BDE6C
:102B4000F9361DB783C78C02F99B2384FC0229BF89
:102B500083C78C0213F727004DC7F99B2384FC021F
:102B600021B79247B24582978247E3CF07EE01BF74
:102B7000EFF0EF8DEFF0AF8E832749DDAA8C636A0B
:102B8000F50083A70BDE904313361600232A99DD48
:102B90007DB54D3B232A99DDEFF0AFC5F1B55D332F
:102BA000EDBD8A07DA97054798C30F00F00F6DBD9A
:102BB000EFF02FC483A749DEDC4703ACC700930DB9
:102BC0004C006E85EFF09FB703478C029376470069
:102BD00085EE799B2304EC0203270C0262850297A1
:102BE00061B56374FD00E38A06EE93854C0003A58E
:102BF00049DEEFF0DFB18DBD03A549DEEFF03FB157
:102C0000A5B5668519268DB583268C013307DD00B1
:102C10002322EC0023288C0163FFEC00EE8503A542
:102C200049DEEFF0DFAE4DBF93854C0003A50BDE10
:102C3000EFF0FFAD15BDB38CAC4163EFDC02014793
:102C400081466A8681456285AD3959F5B70700909E
:102C500003C78707B7070218A385E7000F00F00F27
:102C600001A0B707009003C78707B7070218A3851D
:102C7000E7000F00F00F01A0EE8503A50BDEEFF0DB
:102C80001FA999BF19C108418280B707009003C7E7
:102C90008707B7070218A385E7000F00F00F01A010
:102CA00019CD411122C42A8406C6EFD03FAB404C57
:102CB000EFD0DFAE2285B240224441018280B707C7
:102CC000009003C78707B7070218A385E7000F0026
:102CD000F00F01A005C1411122C426C22A84AE848E
:102CE00006C6EFD0BFA744CC2244B2409244410173
:102CF0006FD0DFAAB707009003C78707B70702188E
:102D0000A385E7000F00F00F01A0B7E700909387BD
:102D100007E03E879C43E3EEA7FE5043B305C700A0
:102D200054416307B5023306D5006387C7001CC151
:102D30006303A70008C3828037E600900326C6DF3E
:102D4000E387C7FED043B2969C431CC154C1CDB7A4
:102D5000B29654C33306D700E39FC7FC37E6009012
:102D60000326C6DF3A85E39FC7FC8280011122CC8F
:102D700006CE26CA4AC82A84EFE07FEDB7E5009068
:102D800083A7C5DF63880710B7E7009083A487DEB9
:102D9000B3779400C1E79307F4FF59576360F708CE
:102DA00013777400930784002DE74EC652C437EAA8
:102DB000009083298ADF63EFF91237E6009003243D
:102DC00006E0130606E029A0184011C722863A84BF
:102DD0005440E3EBF6FE03A7C5DF630D87100C40FC
:102DE000032906003387F6400CC241462109637768
:102DF000E6043305F400937675008DCEB707009096
:102E000003C78707B7070218A385E7000F00F00F75
:102E100001A013F787FF210763E7E706EFF06F9D37
:102E2000EFD0FFED0149F24062444A85D244424965
:102E30000561828058C15CC0C93D5440B389D94006
:102E4000B7E70090232C3ADF03A747DF63E1E904EB
:102E500037E70090832707DFD58C850744C0232000
:102E600004002328F7DEEFF0CF9893777900D9CBD1
:102E7000B707009003C78707B7070218A385E700C5
:102E80000F00F00F01A04EC652C4BA870DB723AA97
:102E900037DF7DBFB71600909387869713F77700CB
:102EA00029CF13877700619BBA8635661306863F64
:102EB000B297E19B23A0070023A207003387E740D6
:102EC00037E60090130606E09CC2B7E8009037E8AA
:102ED000009037E50090B7040080D8C223AEF5DE3D
:102EE00014C22322060023AAE8DE232CE8DE2324D2
:102EF00095DE79BDB249224A15B713878697938626
:102F0000869765B7B249224A39BF39C1B7E7009001
:102F100083A787DE0327C5FFB376F70099CE832604
:102F200085FF85CAB707009003C78707B707021850
:102F3000A385E7000F00F00F01A0B707009003C7BB
:102F40008707B7070218A385E7000F00F00F01A05D
:102F50008280011193C7F7FF06CEF98F232EF5FE6D
:102F60002AC6EFE0DFCE37E700903245832687DFC1
:102F70008327C5FFB6976115232CF7DE793337E732
:102F800000908327C7DE85072326F7DEF240056120
:102F90006FF02F86B7E7009003A587DF828041118D
:102FA00022C426C206C6045D3C412A8499EB1C411A
:102FB00085040145A5CF04DCB2402244924441017E
:102FC00082804AC032893E86631709024841EF0079
:102FD000704D5C403840BA975CC01844850463E487
:102FE000E7001C405CC00249B24004DC2244924429
:102FF0000145410182804845EF00D04A38405C4499
:10300000998F5CC414403307E04063F5D7001C443B
:10301000BA975CC489476301F90285040249B2404A
:1030200004DC224492440145410182800844EFF0CF
:103030004FE12324040041B7DDF485446DB701114D
:1030400022CC06CE20452AC61DC8185C5C5C637D78
:10305000F70026CA185C8144636EF702F2406244AE
:103060002685D24405618280B707009003C7870791
:10307000B7070218A385E7000F00F00F01A0B707FC
:10308000009003C78707B7070218A385E7000F0062
:10309000F00F01A04AC80349540401466C00228580
:1030A000FD3D620913598941FD57AA84630EF90059
:1030B0009307F0076306F90293071900E207E18717
:1030C000A302F404424959BF5C5099E3424979B7DD
:1030D00013054402EFF0AF9675D985444249BDBF50
:1030E000B707009003C78707B7070218A385E70053
:1030F0000F00F00F01A0411122C426C206C6AA8407
:103100004AC0EFD0AFE583C75404139487016184AC
:10311000635280041389440219A8153715E19307F7
:10312000F4FF1394870113F7F70F618405C7BC44BC
:103130002685E5F7DC504A8591CFEFF04F9065D1B9
:10314000EFF04FA49307F4FF1394870113F7F70FE1
:10315000618471FFFD57A382F404EFD02FE4EFD018
:10316000EFDF83C74404139487016184635D8002A9
:103170001389040109A89307F4FF1394870113F737
:10318000F70F61840DC39C484A8591CFEFF02F8BD8
:103190007DD1EFF02F9F9307F4FF1394870113F76E
:1031A000F70F61846DF3FD572382F4042244B2408B
:1031B0009244024941016FD06FDE39C5411122C4EA
:1031C00026C22A8406C6AE84EFD04FD938405C5C54
:1031D000B307F70214403387E740232C04027D56DF
:1031E0003697B6972302C40458C41CC454C0A30223
:1031F000C40495E41C48A1E7EFD04FDAB240224462
:103200009244054541018280B707009003C78707B4
:10321000B7070218A385E7000F00F00F01A0130500
:103220000401EFF0CFCB13054402EFF04FCBEFD00A
:10323000EFD6B240224492440545410182801305F5
:103240000401EFE0DFFF4DD9F32740F181EF37179D
:1032500003188327C7FF93E71700232EF7FE0F00FD
:10326000F00F59BF371703188A07BA97054798C355
:103270000F00F00F51B701EDB707009003C78707A4
:10328000B7070218A385E7000F00F00F01A095C64D
:10329000797106D63DCE8DCD930740053ECE72485E
:1032A0006303F804B707009003C78707B70702183E
:1032B000A385E7000F00F00F01A0B707009003C738
:1032C0008707B7070218A385E7000F00F00F01A0DA
:1032D000B707009003C78707B7070218A385E70061
:1032E0000F00F00F01A0F2478547C8DEACC2238370
:1032F000F60490C23685BE853AC636C47D3DA246E8
:1033000032472388E604B25023A40604368545617B
:10331000828091E9930740053ECE7246E314F6F8A9
:10332000F2473686D1B7B707009003C78707B707BC
:103330000218A385E7000F00F00F01A0397106DE27
:1033400032C66306051222DC4AD84ED62A84AE89DC
:103350003689638C050E89476311F902585C8547ED
:10336000630DF700B707009003C78707B707021878
:10337000A385E7000F00F00F01A0EFF0CFAA630CC8
:10338000051026DAEFD08FBD185C5C5C6366F7121F
:103390008947630CF91452D456D25AD08147130A84
:1033A0008101FD54930AC100130B040131A8EFD031
:1033B000EFBE22858933EFE0DFC3EFD02FBA145C74
:1033C000585C854763E7E60E3247630B0714C1CFAD
:1033D000EFD0CFBCEFE0BF87EFD04FB883474404B6
:1033E000E207E187639497002302040483475404AF
:1033F000E207E18763949700A3020404EFD00FBAB9
:10340000D6855285EFE07FEE63130512EFD00FB53E
:10341000185C5C5CE31DF7F8EFD04FB8B2455A85F5
:10342000EFE01FDA2285C139EFE0BFBC59F5F32781
:1034300040F1A9EB371703188327C7FF93E717005D
:10344000232EF7FE0F00F00F8DBF3C41E38507F000
:10345000B707009003C78707B7070218A385E700DF
:103460000F00F00F01A05285EFE0DFE695B7B70738
:10347000009003C78707B7070218A385E7000F006E
:10348000F00F01A0371703188A07BA97054798C3AA
:103490000F00F00F1DB7B247E38507EEB7070090A6
:1034A00003C78707B7070218A385E7000F00F00FCF
:1034B00001A0225A925A025B4A86CE852285045C7C
:1034C000EFF0FFAD3C4495CB89476309F9042285B1
:1034D000EFF0FFB615E5EFD06FAC05456254F25042
:1034E000D2544259B259216182804A86CE852285C2
:1034F000045CEFF0DFAA3C4495E35C50A1EB61DD96
:10350000F32740F19DEB371703188327C7FF93E795
:103510001700232EF7FE0F00F00F75BFCDFC45BF3F
:10352000EFD0CFA70145225A925A025B45BF2285B0
:10353000EFF07FBCEFE0FFABF5B7371703188A0752
:10354000BA97054798C30F00F00F71B713054402EF
:10355000EFE0FFCE49D16DB76DC1011122CC26CA73
:103560004AC85AC006CE2A842E8B3289B684A5CD8D
:1035700089476391F402585C8547630DF700B707EC
:10358000009003C78707B7070218A385E7000F005D
:10359000F00F01A052C456C2EFD00FEAB7070218CD
:1035A000370A009083C6B70003478A0793FAF60FDD
:1035B000A385E7000F00F00F185C5C5C6362F70402
:1035C00089470145638EF402B7070218A3855701A6
:1035D0000F00F00FF2406244224A924AD24442491C
:1035E000024B056182803C41C1D7B707009003C7F9
:1035F0008707B7070218A385E7000F00F00F01A0A7
:103600004EC683495404DA8526862285E209032BB7
:103610008403EFF0DF9893D98941FD57638AF9025B
:103620009307F0076387F90493871900E207E1879E
:10363000A302F4040545B24941BFB707009003C790
:103640008707B7070218A385E7000F00F00F01A056
:103650003C448DCB89476394F400E31D0BFC228529
:10366000EFF0FF9D61D9E30709FC85472320F900AE
:10367000D1B703478A07B7070218A385E7000F00F1
:10368000F00F01A05C50DDD713054402EFE03FBB13
:1036900079F94DB7397106DE32C6630B051222DCAB
:1036A00052D42A842E8AC5C5EFE0FFF755CD4AD8FB
:1036B000EFD0CF8A032984036313091426DA4ED688
:1036C00056D2B247ADCB930981014E85EFE09FC042
:1036D000930AC100FD54EFD06F8CEFE04FD7EFD0CD
:1036E000EF8783474404E207E1876394970023024E
:1036F000040483475404E207E18763949700A3021C
:103700000404EFD0AF89D6854E85EFE01FBE35E9C2
:10371000EFD0CF841C5CD1C3EFD04F882285EFF06F
:103720009F9DEFE01F8DEFD06F8303298403631506
:10373000090CB247CDF3EFD06F860145D254B25990
:10374000925A6254F2504259225A216182803C417D
:10375000A1DFB707009003C78707B7070218A38543
:10376000E7000F00F00F01A0B247B1D3B7070090F8
:1037700003C78707B7070218A385E7000F00F00FFC
:1037800001A02285EFF03F97EFE0BF86EFC01FFD5D
:103790001C5CD5D3EFD08F8079B7EFD02F80B245A6
:1037A00013054402EFE0DFA12285EFF0DF94EFE0A4
:1037B0005F8435F9F32740F19DE737170318832716
:1037C000C7FF93E71700232EF7FE0F00F00FA1BFEE
:1037D000B707009003C78707B7070218A385E7005C
:1037E0000F00F00F01A0371703188A07BA97054793
:1037F00098C30F00F00F05BFD254B259925A30400F
:1038000019CA4C44B2954CC41C4463E4F5000C4006
:103810004CC4528541297D19232C24031C4889E777
:10382000EFC0DFF7054531BF13050401EFE03FA10D
:1038300065D9F32740F181EF371703188327C7FFB6
:1038400093E71700232EF7FE0F00F00FD1BF3717B5
:1038500003188A07BA97054798C30F00F00FC9B736
:10386000411122C426C24AC02A8406C6AE843289C7
:10387000EFC0DFEE83474404E207E1877D5763949E
:10388000E7002302040483475404E207E1877D57DD
:103890006394E700A3020404EFC05FF01C5C89CBD3
:1038A00022852244B2409244024941016FF0BF8414
:1038B000130544024A86A685EFE03F942285224400
:1038C000B2409244024941016FF0FF82AA858146CD
:1038D00001460145E9A1AA8503A5C1808DA0AA855D
:1038E00003A5C18085AB41114AC017A90070130917
:1038F000E95122C426C206C683270900AA842E8461
:1039000089E781453D242320A900A2852685152429
:103910007D59631A25017D542285B2402244924488
:10392000024941018280130435007198E30685FE47
:10393000B305A4402685F52AE31025FFE9BF011150
:1039400026CA93843500F1984AC806CE22CC4EC6CA
:1039500052C4A104B1472A8963F7F406BE8463E622
:10396000B4064A85DD2897A900709389694A83A720
:1039700009003E8435E4A6854A85B537FD572A847B
:103980006318F50C03A40900A287C5EB45CC032AF4
:10399000040081454A85229A692A6315AA0A1C40B7
:1039A0009D8CA6854A858137FD57630DF5081C401F
:1039B000A6971CC083A70900D1CFD84363128708FC
:1039C00023A207003DA8E3DC04F82320F900014509
:1039D000F2406244D2444249B249224A056182809F
:1039E0001440858E63C806042D47637DD70204C04A
:1039F000330794006396870223A0E9005C4014C358
:103A00005CC34A8585201305B4009307440061997F
:103A10003307F540E30EF5FA3A94898F1CC04DBF89
:103A2000D8C3E9BF58406395870023A0E900D1BF00
:103A3000D8C3C1BFA287404035BF3E84DC43B1B785
:103A4000BA879DBFB1472320F9004A85212841B795
:103A500004C145BF23220000029017A50070130582
:103A6000653B59AA17A500701305C53A79A23971AB
:103A70003EDA83A7C18032D436D62ED23AD842DC81
:103A800046DE54102A868C473E8506CE36C6EF00A9
:103A90009003F240216182803571A2DCA6DA86DED5
:103AA000CAD82E840C10F4D5B8D9FCD923AC05079C
:103AB00023AE150783A4C180635C04009307B0089C
:103AC0009CC07D55F6506654D65446590D6182808F
:103AD00093078020231AF1002AC42ACC814719C0F9
:103AE0009307F4FF7D5974012C0026853EC83ECE15
:103AF000231B210136C2FD21635525019307B00820
:103B00009CC069D0A247238007006DBF2A8603A509
:103B1000C180AE860C456F00007BAA95AA8763859D
:103B2000B70003C7070001E73385A74082808507F8
:103B3000FDB7411122C42A842E8597A7007023A5C2
:103B4000072E06C6EF10B01CFD576318F50097A7A7
:103B5000007083A7672D91C31CC0B240224441016D
:103B60008280411122C426C217740B0013044451F1
:103B700097740B009384C450818C4AC006C6898414
:103B800001496315990217740B001304644F97746D
:103B90000B009384244F818C89840149631D990013
:103BA000B240224492440249410182801C408297E3
:103BB00005091104F9B71C40829705091104F9BFE2
:103BC000411122C426C217740B001304A44B97742E
:103BD0000B009384244B058C06C6098411E4B24083
:103BE00022449244410182807D1493172400A697B9
:103BF0009C438297E5B78280828082803D432A87FA
:103C00006373C3029377F700BDEFADE5937606FFCC
:103C10003D8ABA960CC34CC30CC74CC74107E36B33
:103C2000D7FE11E28280B306C3408A0697020000E5
:103C300096966780A6002307B700A306B700230661
:103C4000B700A305B7002305B700A304B7002304FA
:103C5000B700A303B7002303B700A302B7002302F2
:103C6000B700A301B7002301B700A300B7002300EA
:103C7000B700828093F5F50F93968500D58D9396C6
:103C80000501D58D61B7939627009702000096969F
:103C90008682E78086FA9680C1171D8F3E96E37470
:103CA000C3F8A5B7B3C7A5008D8BB306C50081E7E0
:103CB0008D4763EFC700AA876369D500828003C779
:103CC000050085078505A38FE7FEE39AD7FE82806E
:103CD00093773500B1E7AA8713F7C6FF3308F7409B
:103CE00013060002634806093E862E886369E608CB
:103CF0001388D7FF0146636607010D071D8F1376F2
:103D0000C7FFB297B295E3E2D7FC828003C70500F4
:103D100085078505A38FE7FE13F7370065FB6DBFA9
:103D2000AA87DDBF83A3050083A2450083AF85007A
:103D300003AFC50083AE050103AE450103A38501B2
:103D400083A8C50123A0770023A2570023A4F7016D
:103D500023A6E70123A8D70123AAC70123AC670044
:103D600023AE170103A805029385450293874702F6
:103D700023AE07FF3308F740E34606FBB5B78328B9
:103D8000080023201601110811068DB7AA8703C762
:103D9000070085076DFF3385A7407D1582800111DF
:103DA00052C4138A018122CC2A8403250A0026CA20
:103DB0004AC84EC606CEAE84B2893689353D17A7AD
:103DC00000701307E7051C4385E397A700709387EE
:103DD00027331CC31307000001C7184323A4E708B7
:103DE00097A700709387C731D843FD4603250A0083
:103DF00063DCE60019357D55F2406244D244424905
:103E0000B249224A0561828005CC03A88708E303F2
:103E100008FE93182700C29823A038010546832680
:103E200008103316E600D18E2320D81023A02809CD
:103E300089466317D40083264810D18E2322D810D8
:103E4000930617000A07D4C3BA9784C7EFF0FFDAC6
:103E500001455DB7D5C1011122CC06CE83A7C5FFB0
:103E60001384C5FF63D307003E942AC6EFF0FFBE5C
:103E700017A700701307C7F91C43324589EB2322AB
:103E8000040000C36244F24005616FF0BFBD637D72
:103E9000F4001040B306C4006396D7009443B29672
:103EA00014C0DC435CC0F1BF3E87DC4399C3E37DB3
:103EB000F4FE14433306D700631F86001040B29609
:103EC00014C33306D700E39FC7FA9043B296DC438E
:103ED00014C35CC345BF6375C400B1471CC15DB763
:103EE0001040B306C4006396D7009443B29614C042
:103EF000DC435CC040C379B78280011122CC4AC840
:103F00004EC656C25AC006CE26CA52C403A9850060
:103F10002E84328BB68983AA050063E9260783972E
:103F2000C50013F707482DC30D474448B384E40286
:103F300009478C49B38ABA402A8AB3C4E40213877A
:103F40001600569763F3E400BA8493F70740BDC7A1
:103F5000A6855285EFF0BF9E2A8935C956860C4842
:103F6000EFF05FD48357C40093F7F7B793E70708E0
:103F70002316F4002328240144C85699B3845441DD
:103F80002320240104C44E8963F329014E894A8603
:103F9000DA850840EF00F0631C44B38727411CC456
:103FA0001C40CA971CC00145F2406244D2444249B9
:103FB000B249224A924A024B056182802686528586
:103FC000EF00D0652A895DF50C4852856135B1470F
:103FD0002320FA008357C4007D5593E70704231676
:103FE000F400D9B783D7C500357122CD26CB4AC995
:103FF00052C506CF4EC756C35AC1DEDEE2DCE6DA52
:1040000093F707082A8A2E89B2843684A9C39C496B
:104010009DEF93050004EFF09F922320A900232831
:10402000A90015E1B1472320FA007D55FA406A4402
:10403000DA444A49BA492A4A9A4A0A4BF65B665C0C
:10404000D65C0D61828093070004232AF900930750
:104050000002A304F1029307000302D22305F10238
:1040600022C6930B5002FD5A054C294B26848347E8
:10407000040099C36390770BB30C9440630C9400D5
:10408000E6862686CA8552858D3D6306551B925766
:10409000E6973ED283470400638F07189304140009
:1040A00002C802CE56CA02CCA309010482D4976C7E
:1040B0000B00938C2C31154683C5040017650B004B
:1040C00013054530EF00D04213841400C24729E5A0
:1040D00013F7070109C713070002A309E10413F747
:1040E000870009C71307B002A309E10483C60400CF
:1040F0001307A002638AE60272472684814625469A
:1041000083470400938707FD930514006376F60C3C
:104110009DE215A80504A1BF330595413315AC00F8
:10412000C98F3EC8A28441BF32479306470036C6B6
:104130001843634407003ACE39A03307E04093E7C1
:1041400027003ACE3EC8034704009307E0026312FB
:10415000F702034714009307A0026315F708B2475C
:10416000138747003AC69C43090463D30700FD57F1
:104170003ECA0D468345040017650B00130505254F
:10418000EF00103711CD97670B00938727241D8D03
:1041900013070004C2473317A700D98F05043EC890
:1041A00083450400194617650B0013056522930427
:1041B00014002304B102EF00B03351C5930700008F
:1041C000A1EF424713770710B24739C391073EC6A4
:1041D0009257CE973ED259BDFF1767C52E843E87B2
:1041E000854639BF050402CA8146014725468347F3
:1041F0000400938707FD930514006375F600B5DA94
:104200003ACA85BFFF1767C52E843E878546C5B766
:104210009D07E19BA10765BF780097060000938684
:1042200006CE4A860C08528597000000E700000081
:10423000AA89E31F55F98357C90093F70704E3964A
:1042400007DE1255E5B3780097060000938626CB6B
:104250004A860C0852853D21E1BF1C46FD171CC64D
:1042600063DA0700184E63C5E700A9476394F500B9
:104270006F0010121C421387170018C22380B7006A
:104280002E858280011122CC26CA4AC84EC652C44D
:1042900006CE2A89AE893284B304D6007D5A6314CF
:1042A0009400014509A8834504004E864A85753768
:1042B0000504E31645FFF2406244D2444249B24944
:1042C000224A05618280357122CD26CB4AC94EC76C
:1042D00006CF52C556C35AC1DEDEE2DCE6DAAA8951
:1042E000AE843289368409C51C5199E3EF004075CC
:1042F000FC50858B89EB83D7C40093F7072081E7B7
:10430000A84CEFF07F8F83D7C400A18B99C39C4842
:10431000A1E3A6854E85EF0030111DC9FC50858BA9
:1043200099CF7D55FA406A44DA444A49BA492A4A43
:104330009A4A0A4BF65B665CD65C0D61828083D735
:10434000C40093F70720F1FFA84CEFF01F8BD1BFFB
:1043500093070002A304F1029307000302D223058E
:10436000F10222C6930B5002FD5A054C294B4A8498
:104370008347040099C36390770BB30C2441630C0B
:104380002401E6864A86A6854E85ED3D6306551BCB
:104390009257E6973ED283470400638F07181309AC
:1043A000140002C802CE56CA02CCA309010482D46A
:1043B000976C0B00938C0C0115468345090017651B
:1043C0000B0013052500EF00B01213041900C247BB
:1043D00029E513F7070109C713070002A309E10440
:1043E00013F7870009C71307B002A309E104834646
:1043F00009001307A002638AE60272474A848146D5
:10440000254683470400938707FD930514006376D0
:10441000F60C9DE215A80504A1BF3305954133159F
:10442000AC00C98F3EC8228941BF3247930647007E
:1044300036C61843634407003ACE39A03307E0403C
:1044400093E727003ACE3EC8034704009307E002F3
:104450006312F702034714009307A0026315F708DD
:10446000B247138747003AC69C43090463D3070049
:10447000FD573ECA0D468345040017650B00130522
:10448000E5F4EF00F00611CD97670B00938707F472
:104490001D8D13070004C2473317A700D98F0504E9
:1044A0003EC883450400194617650B00130545F205
:1044B000130914002304B102EF0090034DC19307C8
:1044C0000000A1EF424713770710B24739C39107A5
:1044D0003EC69257D2973ED259BDFF1767C52E846C
:1044E0003E87854639BF050402CA814601472546F5
:1044F00083470400938707FD930514006375F60056
:10450000B5DA3ACA85BFFF1767C52E843E87854650
:10451000C5B79D07E19BA10765BF7800970600001E
:10452000938686D626860C084E8597000000E70005
:1045300000002A8AE31F55F9FC50858B89EB83D74D
:10454000C40093F7072081E7A84CEFF00FEB83D767
:10455000C40093F70704E39607DC1255E1B3780033
:1045600097060000938646D226860C084E85192AA7
:10457000C9B7797122D44AD04ECE52CC56CA06D68B
:10458000BA8A26D25AC85EC698459C49AA892E8402
:104590003289368A63D3E700BA872320F9000347BC
:1045A000340401C785072320F9001C4093F7070254
:1045B00091C78327090089072320F90004409988BF
:1045C00091E8130B9401FD5B5C4403270900998F6C
:1045D00063CDF40483473404B336F0001C4093F7F2
:1045E0000702ADEB13063404D2854E85829AFD573F
:1045F0006304F5041C40998B11478144639AE700DA
:104600008327090044449D8C93C7F4FFFD87FD8CEC
:104610001C4418486354F700998FBE9401496904FB
:104620007D5B63982405014509A885465A86D28595
:104630004E85829A631E75017D55B2502254925464
:104640000259F249624AD24A424BB24B45618280DA
:1046500085049DBF3307D40013060003938716001B
:10466000A301C70403475404A2978906A381E70462
:1046700095BF85462286D2854E85829AE30E65FBDC
:10468000050945B7797122D426D24AD04ECE06D636
:1046900052CC56CA5AC803C8850193078007AA841A
:1046A0002E843289B68963E2070393072006938636
:1046B000350463E10703630F081A93078005176643
:1046C0000B00130666D16302F814930A2404230135
:1046D000040515A89307D8F993F7F70F5546E36635
:1046E000F6FE17660B001306A6D18A07B2979C4305
:1046F000B29782871C439386470014C39C43938AD6
:1047000025042381F504854749AA9C41084313F6F3
:104710000708930545000DC20CC31C4163D8070070
:104720001307D002B307F040A301E40417660B009F
:10473000130686CA294889A013F607041C410CC336
:1047400071DEC207C187D9BF8C41104313F505083C
:104750001C42110611E593F5050499C1C207C183F6
:1047600010C31307F00617660B001306E6C6631D99
:10477000E80C2148A3010404584018C4634807000A
:104780000C40ED990CC05D8FB68A19CFB68A33F70D
:104790000703FD1A3297034707002380EA003E878C
:1047A000B3D70703E37507FFA147631EF8001C405A
:1047B000858B91CB58401C4863C7E70093070003E3
:1047C000A38FFAFEFD1AB386564114C84E87CA86D7
:1047D0007000A2852685EFF0DFD97D5A6313450D61
:1047E0007D55B250225492540259F249624AD24A3B
:1047F000424B456182809C4193E707029CC11308AC
:10480000800717660B00130666BEA30204050C4062
:10481000084313F805081C4111056318080013F834
:10482000050463040800C207C18308C313F7150019
:1048300001C793E505020CC099C3414825BF184044
:104840001377F7FD18C0D5BF29482DB790411C43F9
:1048500013780608CC49138547006306080008C38F
:104860009C438CC301A808C3137606049C4375DAE5
:104870002390B70023280400B68A89BF1C4393867F
:10488000470014C383AA0700D041568581458D2176
:1048900001C53305554148C05C401CC8A301040450
:1048A00035B714485686CA8526858299E30A45F3AA
:1048B0001C40898B8DE7B2474844E354F5F23E85AE
:1048C0000DB785465A86CA8526858299E30A45F141
:1048D000850A5C443247998FE3C5FAFEE9BF814AF5
:1048E000130B9401FDB7411122C406C62A84231676
:1048F000B5002317C500232005002322050023242B
:1049000005002322050623280500232A0500232C61
:104910000500214681451305C505EFF02FAE970729
:1049200000009387871B5CD0970700009387E71DE3
:104930001CD497070000938727225CD497070000B8
:104940009387E7241CD800D097A70070938707842B
:10495000630EF40097A700709387C7896308F4007B
:1049600097A700709387878F6319F4001305840558
:104970002244B24041016FF00FA8B24022444101ED
:10498000828017B6FF6F1306666E97050000938549
:10499000C56417B5FF6F1305A568D1A8411122C4DE
:1049A00006C64C41979700709387477E2A8463839D
:1049B000F50015250C4497A700709387A78363849F
:1049C000F5002285092D4C4497A70070938707892D
:1049D0006387F50022852244B2404101EDABB2402D
:1049E0002244410182804111970700009387A7F973
:1049F00001469145179500701305457906C617972E
:104A000000702321F742C5350546A545179500706E
:104A10001305457EC93DB2400946C94517A500703A
:104A20001305C5834101C1B5179500701305053FF6
:104A30006FF08F9C179500701305453E6FF0EF9B4C
:104A4000411122C406C62A84C5371C5089C7224496
:104A5000B2404101C5B797070000938767F41CD0A7
:104A60009797007083A7073CFDF3B53FCDB77971E9
:104A700022D44AD04ECE52CC5AC85EC606D626D2D2
:104A800056CAAA892E8A32840149054BFD5B04442B
:104A9000832A4400FD1A63D00A0200406DF8B25028
:104AA00022544A8592540259F249624AD24A424BF0
:104AB000B24B4561828083D7C400637BFB00839740
:104AC000E40063877701A6854E85029A3369A900C1
:104AD00093848406C1B7411122C42E848395E500D6
:104AE00006C66124634905007C48AA977CC8B24089
:104AF0002244410182808357C4007D777D17F98F5E
:104B00002316F400EDB783D7C500011122CC26CAC5
:104B10004AC84EC606CE93F70710AA842E8432895F
:104B2000B68991C78395E5008946014631248357AC
:104B3000C4007D777D178315E400F98F2316F400F8
:104B40006244F240CE864A86B24942492685D24422
:104B50000561B1A4411122C42E848395E50006C6E7
:104B6000E12A7D578357C400631BE5007D777D17DD
:104B7000F98F2316F400B240224441018280056778
:104B8000D98F2316F40068C8FDB78395E500B5AA50
:104B9000011122CC26CA4AC806CE4EC62A89AE8446
:104BA000328409C51C5199E3EFF09FE91C4C1CC4E9
:104BB0008357C400A18B99C31C4891EFA2854A85F5
:104BC000A52011C9FD54F240624426854249D244D1
:104BD000B249056182801C4018483385E7405C4833
:104BE00093F9F40F93F4F40F6346F500A2854A8518
:104BF000DD2669F91C44FD171CC41C4013871700EF
:104C000018C0238037015848930715006309F7003F
:104C10008357C400858BC5DBA947E396F4FAA285C8
:104C20004A85552E4DD179BF411126C2AA8403A5CC
:104C3000C18022C406C62E8409C51C5199E3EFF039
:104C40003FE08317C40013F7870029EB13F7070130
:104C500009EB254798C093E707042316F4007D5518
:104C6000A5A8918B95C74C5891C9930744046385B7
:104C7000F5002685EFF00F9E232A04028357C40017
:104C80002322040093F7B7FD2316F4001C481CC030
:104C90008357C40093E787002316F4001C4881EF74
:104CA0008357C4001307002093F707286385E700A4
:104CB000A2852685F92E8317C40013F7170015C3A4
:104CC00058483307E0402324040018CC1848014515
:104CD00001E713F7070841F3B2402244924441012F
:104CE000828013F72700814611E3544814C4F9BFAA
:104CF00093F5F50F2A966314C5000145828083471A
:104D00000500E38DB7FE0505FDB7411122C42A84D5
:104D10002E859797007023A9071006C65121FD57CD
:104D20006318F5009797007083A7071091C31CC004
:104D3000B240224441018280411122C42A842E853E
:104D4000B28536869797007023A0070E06C6C92342
:104D5000FD576318F5009797007083A7E70C91C380
:104D60001CC0B240224441018280411122C42A84E5
:104D70002E85B28536869797007023A7070A06C648
:104D8000EF000072FD576318F5009797007083A736
:104D9000A70991C31CC0B240224441018280411145
:104DA00022C42A842E85B28536869797007023AD5B
:104DB000070606C6EF00C07EFD576318F5009797FB
:104DC000007083A7670691C31CC0B2402244410112
:104DD000828063F6A500B386C5006366D50081476F
:104DE0006314F60282809345F6FF8147FD176393B3
:104DF000F50082803387F600034807003307F6008A
:104E00002A9723000701DDB73387F50083460700A3
:104E10003307F5002300D7008507D9B7011122CC4D
:104E200006CE26CA4AC84EC652C4328499E96244A4
:104E3000F240D2444249B249224AB28505616FE04C
:104E40001FB009EEEFF00F818144F24062442685E5
:104E50004249D244B249224A056182802A8AAE84FC
:104E60002D262A896366850093571500E3EF87FC9A
:104E7000A2855285EFE0BFACAA8919E1CE84F1B7D3
:104E80002286637389004A86A6854E85EFE09FE1FE
:104E9000A6855285EFE01FFCD5B78397C5000111A9
:104EA00022CC26CA06CE4AC84EC613F78700AA846B
:104EB0002E8479E7D8416345E000B841635BE00A9E
:104EC000585445CB03A904009396370123A004004E
:104ED0000C5063DE060670488357C400918B99C757
:104EE0005C401D8E5C5899C33C401D8E5C548146CD
:104EF0000C50268582977D578357C400631DE500BB
:104F0000944075476369D706370740200507335734
:104F1000D700058B2DC3184818C02322040013970F
:104F2000370163580700FD576314F5009C4091E377
:104F300068C823A024014C588DCD93074404638591
:104F4000F5002685EFE01FF1232A04021DA001468B
:104F5000854626850297FD572A86E31FF5F69C4075
:104F6000A5DF75476385E70059476394E70423A0ED
:104F700024010145B1A093E70704C207C18735A802
:104F800083A90501E38709FE03A905008D8B23A0F2
:104F9000350133093941014791E3D84918C4E35A2F
:104FA00020FD1C54CA864E860C502685829763408D
:104FB000A0028317C40093E707042316F4007D556D
:104FC000F2406244D2444249B24905618280AA99C2
:104FD0003309A940E9B7411106C622C426C29C493B
:104FE00081EB8144B2402244268592444101828073
:104FF000AA842E8409C51C5199E3EFF07FA483177E
:10500000C400E5D37850058B19E793F7072081E7B3
:10501000284CEFE07FBE2685A285EFF01FE87C508C
:10502000858BAA84E1F38357C40093F70720DDFB47
:10503000284CEFE09FBC7DB75971A2D42E84839594
:10504000E500A6D2CAD086D6B284368963D30502DB
:105050008357C40093F707088DEB13070040232004
:10506000F90098C0B650265496540659014565611A
:10507000828030006528E34D05FC3D67B247F98F1B
:105080007977BA9793B71700C9BF81471307000410
:10509000F9B783D7C500797122D406D626D24AD073
:1050A0004ECE898B2E8491CF930774041CC01CC8EC
:1050B00085475CC8B250225492540259F249456166
:1050C000828074003000AA84853FA2492A89CE8557
:1050D0002685EFE0DF8601ED8317C40013F7072074
:1050E00071FBF19B93E727002316F40075BF8357EC
:1050F000C40008C008C893E707082316F400232A51
:105100003401B24789CF8315E4002685812801C97F
:105110008357C400F19B93E717002316F4008357CD
:10512000C40033E527012316A40069B7411122C446
:105130002A842E85B2859797007023A707CE06C6CE
:10514000B122FD576318F5009797007083A7C7CD6C
:1051500091C31CC0B240224441018280411122C44B
:105160002A842E859797007023A007CC06C6892233
:10517000FD576318F5009797007083A7E7CA91C39E
:105180001CC0B24022444101828083A7C5FF138521
:10519000C7FF63D50700AA959C413E958280000019
:1051A000011126CA06CE22CCAA844D2021CD1C4155
:1051B0003EC609456C00130000001300000001000A
:1051C0001310F00173001000135070402A84634BD9
:1051D000050019E1268555202285F2406244D2441B
:1051E000056182804D4581451300000013000000D9
:1051F0001310F00173001000135070409797007067
:1052000023A4A7C27D54C9BF000097950070938561
:10521000650B2A88AE870145FD5641469843630FCA
:10522000D7000505A107E31BC5FE411106C60121F4
:10523000DD471CC1B2407D55410182809317350086
:10524000BE9523A0050123A205008280BD4763ED22
:10525000A700979700709387E7060E053E951841C3
:10526000FD576303F7008280411106C6C926A54792
:105270001CC1B2400145410182800E059797007024
:1052800093874704AA977D5798C38280411122C40F
:10529000130680052A842E85814506C6EFE01F96F9
:1052A000AA8522852244B240410159A40000000091
:1052B000011106CE613F1DCD1C413EC625456C0047
:1052C0001310F00173001000135070406345050087
:1052D000F240056182804D458145130000000100C8
:1052E0001310F00173001000135070409797007076
:1052F00023ACA7B27D55E9BF00000000000000000C
:10530000000000000000000000000000000000009D
:10531000011122CC26CA06CE2E84B284EFF01FF3F0
:105320004DC10547AA876382E40618413AC495C077
:1053300009476392E40602C631452C0013000000C1
:105340001310F00173001000135070402A94634949
:1053500005046342040422C629452C001300000002
:105360001310F0017300100013507040634A0502DF
:1053700011C5F2406244D24405618280C0C32285D7
:10538000F2406244D2440561828048417DD0984316
:105390002A943AC47DBF612CD9471CC17D55D1BF29
:1053A0007924AA8781454D451300000013000000B1
:1053B0001310F001730010001350704088C37D5526
:1053C0004DBFB524A5471CC17D5565B70000000041
:1053D00039713EDA06CE32D436D63AD842DC46DED1
:1053E00093F73500BDCB93F7156013071060638CFE
:1053F000E70293F79520130790206384E70693F75D
:10540000256013072060638CE70493F7A52013073A
:10541000A020638AE70489898D4799E5092CD9473B
:105420001CC17D5505A895472AC23EC4EFE01F96D2
:105430002AC64C00054513000000130000000100BF
:105440001310F0017300100013507040634F0500FB
:10545000EFF0BFDBF240216182808547F1B79D47C5
:10546000E1B7A547D1B7AD47C1B74D45814501006B
:105470001310F001730010001350704097970070E4
:1054800023A4A79A7D55F9B7000000000000000092
:10549000000000000000000000000000000000000C
:1054A000011122CC26CA06CEAE843284EFF01FDA78
:1054B00039C51841AA873AC226C422C619454C00EC
:1054C0001310F0017300100013507040634C05007E
:1054D0003305A440D8432A97F2406244D8C3D2444B
:1054E00005618280A922AA8781454D4513000000ED
:1054F0001310F001730010001350704088C3F24085
:105500006244D2447D5505618280000000001797F7
:1055100000701307A791AA87084301C5AA971CC367
:105520008280179500701305E5E1AA971CC382805D
:10553000011122CC06CE2E84EFF05FD121CD5C404C
:1055400009671441D98F3145056736C65CC038C438
:10555000B305A100130000001300000013000000B9
:105560001310F001730010001350704063480500E1
:1055700008C80145F2406244056182804D4581457D
:105580001310F001730010001350704097970070D3
:1055900023ACA7887D55F9BF000000000000000083
:1055A000011122CC26CA06CEAE843284EFF01FCA87
:1055B00031C91841AA873AC226C422C615454C00F3
:1055C0001310F0017300100013507040634C05007D
:1055D000D8433305A4402A97D8C3F2406244D2444A
:1055E000056182804D4581451300000013000000D5
:1055F0001310F00173001000135070409797007063
:1056000023A4A7827D55D1BFAA8705C12167B355C1
:10561000B7020145FD158CCF98471367170098C74F
:10562000D84713671700D8C782807D55828003A5AD
:10563000C18082800000000051656D75000000008F
:1056400058524253440000000700000058A40B20A9
:1056500088A40B2000000000426F6172643A20258C
:105660007300000048656C6C6F2056657269486570
:10567000616C746869210D0A000000007461736B2D
:105680005F73616D706C650053616D706C65207443
:1056900061736B20636F756E742025640D0A0000C2
:1056A00046696E6973682073616D706C6520746102
:1056B000736B210D0A0000006E6F2073646B206C09
:1056C0006963656E73652100736F6320696E697429
:1056D000206572726F720000736F6320696E697467
:1056E00020646F6E65000000696E69745F617070A0
:1056F000000000005461736B2025732773207374BE
:1057000061636B206F766572666C6F776564210AE2
:10571000000000004D616C6C6F63206661696C6510
:10572000640000000000004835001F000003000076
:105730000800004800000820040000004D434155C7
:105740005345202020203A2030782530386C780DC1
:105750000A0000004D4443415553452020203A2083
:1057600030782530386C780D0A0000004D455043E4
:105770002020202020203A2030782530386C780DE9
:105780000A0000004D5456414C20202020203A2091
:1057900030782530386C780D0A0000005441534BA6
:1057A000204E414D45203A2025730D0A000000008F
:1057B00070646D2073696D756C61746F72207469AB
:1057C0006D6572004372656174652070646D20744C
:1057D000696D6572206572726F72210D0A0000009A
:1057E000556E737570706F7274656420706F6C6C39
:1057F000696E67206D6F6465210D0A0053746F70C8
:105800002070646D2074696D6572206572726F72AC
:10581000210D0A00556E737570706F727465642087
:10582000646D61206D6F6465210D0A00556E73759E
:1058300070706F72746564206368616E6E656C2051
:105840006E756D3A202564210D0A0000556E737542
:1058500070706F727465642073616D706C65207216
:105860006174653A20256C64210D0A00496E7661E9
:105870006C69642073616D706C652077696474680D
:105880003A202564210D0A005761726E3A2073692F
:105890006D756C61746F722070646D20706572201C
:1058A000696E7465727275707420646174612073BE
:1058B000697A65206973202564210D0A00000000C3
:1058C00053746172742070646D2074696D65722008
:1058D0006572726F72210D0A00000000DE0F002059
:1058E000A61000203610002000000000B00E00209E
:1058F0000000000018001E002700270026001800E6
:105900001300080009000B00060002000100070058
:105910000300050007000600FDFFF9FFFBFFFAFF8B
:10592000F7FFF9FFE8FFE8FFEFFFEAFF0100FFFFE5
:10593000F9FFEEFFECFFE5FFE4FFE9FFDCFFDFFF2F
:10594000D4FFD8FFD3FFD4FFCAFFD5FFE5FFEBFF9D
:10595000F6FFEDFFFAFFFFFF0500FFFFFEFFFDFF73
:10596000FDFF0A000000FCFF08000F0013001000FC
:105970000D0013001B00180013000100F4FF0400C9
:105980000E0011000C0012001F0026002A001C004F
:105990000E00FBFF01000800FBFFF4FFF3FFF1FF27
:1059A000F6FFF8FFFAFFFEFFF9FF06000B000B0001
:1059B0000300010000000E000800F1FFF5FFF6FFF4
:1059C0000000F9FFF2FFFCFF0700FEFFFBFFFDFFF9
:1059D000FBFFFBFFF2FFF4FFF2FFEEFFF6FFFDFF20
:1059E000FDFFF9FFF9FFFEFFFFFFF8FFF3FFFDFFEB
:1059F000F7FFE9FFE7FFEAFFF4FFDDFFF0FFEDFF50
:105A00000100F3FFEAFFFFFFDFFFFEFFEAFFF4FF05
:105A1000EDFFFFFFF6FFFDFFF0FFE7FFF7FFDEFF03
:105A2000FDFFECFFEBFFDDFFC9FFD9FFC7FFDAFF8A
:105A3000D9FFDCFFE8FFCBFFCEFFBCFFC9FFBAFFF9
:105A4000B4FFC1FFBEFFC5FFBBFFBDFFBBFFBEFF75
:105A5000BAFFCEFFC8FFCAFFBDFFBBFFB6FFB9FF4D
:105A6000BBFFB5FFBEFFB0FFD5FFC6FFCCFFD1FF28
:105A7000C3FFD8FFCBFFD7FFCAFFCAFFC6FFC0FFD7
:105A8000D7FFD2FFDAFFE6FFEBFFE3FFD4FFCFFF44
:105A9000C7FFCFFFCFFFD0FFE2FFE0FFE6FFEAFF47
:105AA000F1FFF8FFF3FFFCFFEEFFF1FFD5FFDAFF98
:105AB000DCFFD7FFE2FFDFFFEBFFEDFFFBFFFBFFAC
:105AC0000600FAFFFBFFEBFFEBFFF5FFE7FFECFF44
:105AD000EAFFF8FFF1FFE6FFEAFFF8FFF6FFEEFF4F
:105AE000E7FFE9FFF6FFECFFE7FFDEFFE1FFE8FF7E
:105AF000E2FFEEFFDCFFE1FFEAFFECFFF3FFF0FF68
:105B0000EDFFD8FFD2FFDAFFD7FFE5FFECFFDDFFA7
